{
  "_format": "hh-sol-artifact-1",
  "contractName": "StatusUpdate",
  "sourceName": "contracts/Contract.sol",
  "abi": [
    {
      "inputs": [],
      "stateMutability": "nonpayable",
      "type": "constructor"
    },
    {
      "anonymous": false,
      "inputs": [
        {
          "indexed": true,
          "internalType": "address",
          "name": "owner",
          "type": "address"
        },
        {
          "indexed": true,
          "internalType": "address",
          "name": "approved",
          "type": "address"
        },
        {
          "indexed": true,
          "internalType": "uint256",
          "name": "tokenId",
          "type": "uint256"
        }
      ],
      "name": "Approval",
      "type": "event"
    },
    {
      "anonymous": false,
      "inputs": [
        {
          "indexed": true,
          "internalType": "address",
          "name": "owner",
          "type": "address"
        },
        {
          "indexed": true,
          "internalType": "address",
          "name": "operator",
          "type": "address"
        },
        {
          "indexed": false,
          "internalType": "bool",
          "name": "approved",
          "type": "bool"
        }
      ],
      "name": "ApprovalForAll",
      "type": "event"
    },
    {
      "anonymous": false,
      "inputs": [
        {
          "indexed": true,
          "internalType": "address",
          "name": "user",
          "type": "address"
        },
        {
          "indexed": false,
          "internalType": "string",
          "name": "newStatus",
          "type": "string"
        },
        {
          "indexed": false,
          "internalType": "uint256",
          "name": "timestamp",
          "type": "uint256"
        }
      ],
      "name": "StatusUpdated",
      "type": "event"
    },
    {
      "anonymous": false,
      "inputs": [
        {
          "indexed": true,
          "internalType": "address",
          "name": "from",
          "type": "address"
        },
        {
          "indexed": true,
          "internalType": "address",
          "name": "to",
          "type": "address"
        },
        {
          "indexed": true,
          "internalType": "uint256",
          "name": "tokenId",
          "type": "uint256"
        }
      ],
      "name": "Transfer",
      "type": "event"
    },
    {
      "inputs": [
        {
          "internalType": "address",
          "name": "to",
          "type": "address"
        },
        {
          "internalType": "uint256",
          "name": "tokenId",
          "type": "uint256"
        }
      ],
      "name": "approve",
      "outputs": [],
      "stateMutability": "nonpayable",
      "type": "function"
    },
    {
      "inputs": [
        {
          "internalType": "address",
          "name": "owner",
          "type": "address"
        }
      ],
      "name": "balanceOf",
      "outputs": [
        {
          "internalType": "uint256",
          "name": "",
          "type": "uint256"
        }
      ],
      "stateMutability": "view",
      "type": "function"
    },
    {
      "inputs": [
        {
          "internalType": "uint256",
          "name": "tokenId",
          "type": "uint256"
        }
      ],
      "name": "getApproved",
      "outputs": [
        {
          "internalType": "address",
          "name": "",
          "type": "address"
        }
      ],
      "stateMutability": "view",
      "type": "function"
    },
    {
      "inputs": [
        {
          "internalType": "address",
          "name": "_user",
          "type": "address"
        }
      ],
      "name": "getStatus",
      "outputs": [
        {
          "internalType": "string",
          "name": "",
          "type": "string"
        }
      ],
      "stateMutability": "view",
      "type": "function"
    },
    {
      "inputs": [
        {
          "internalType": "address",
          "name": "owner",
          "type": "address"
        },
        {
          "internalType": "address",
          "name": "operator",
          "type": "address"
        }
      ],
      "name": "isApprovedForAll",
      "outputs": [
        {
          "internalType": "bool",
          "name": "",
          "type": "bool"
        }
      ],
      "stateMutability": "view",
      "type": "function"
    },
    {
      "inputs": [],
      "name": "name",
      "outputs": [
        {
          "internalType": "string",
          "name": "",
          "type": "string"
        }
      ],
      "stateMutability": "view",
      "type": "function"
    },
    {
      "inputs": [
        {
          "internalType": "uint256",
          "name": "tokenId",
          "type": "uint256"
        }
      ],
      "name": "ownerOf",
      "outputs": [
        {
          "internalType": "address",
          "name": "",
          "type": "address"
        }
      ],
      "stateMutability": "view",
      "type": "function"
    },
    {
      "inputs": [
        {
          "internalType": "address",
          "name": "from",
          "type": "address"
        },
        {
          "internalType": "address",
          "name": "to",
          "type": "address"
        },
        {
          "internalType": "uint256",
          "name": "tokenId",
          "type": "uint256"
        }
      ],
      "name": "safeTransferFrom",
      "outputs": [],
      "stateMutability": "nonpayable",
      "type": "function"
    },
    {
      "inputs": [
        {
          "internalType": "address",
          "name": "from",
          "type": "address"
        },
        {
          "internalType": "address",
          "name": "to",
          "type": "address"
        },
        {
          "internalType": "uint256",
          "name": "tokenId",
          "type": "uint256"
        },
        {
          "internalType": "bytes",
          "name": "data",
          "type": "bytes"
        }
      ],
      "name": "safeTransferFrom",
      "outputs": [],
      "stateMutability": "nonpayable",
      "type": "function"
    },
    {
      "inputs": [
        {
          "internalType": "address",
          "name": "operator",
          "type": "address"
        },
        {
          "internalType": "bool",
          "name": "approved",
          "type": "bool"
        }
      ],
      "name": "setApprovalForAll",
      "outputs": [],
      "stateMutability": "nonpayable",
      "type": "function"
    },
    {
      "inputs": [
        {
          "internalType": "string",
          "name": "_status",
          "type": "string"
        }
      ],
      "name": "setStatus",
      "outputs": [],
      "stateMutability": "nonpayable",
      "type": "function"
    },
    {
      "inputs": [
        {
          "internalType": "address",
          "name": "",
          "type": "address"
        }
      ],
      "name": "statuses",
      "outputs": [
        {
          "internalType": "string",
          "name": "",
          "type": "string"
        }
      ],
      "stateMutability": "view",
      "type": "function"
    },
    {
      "inputs": [
        {
          "internalType": "bytes4",
          "name": "interfaceId",
          "type": "bytes4"
        }
      ],
      "name": "supportsInterface",
      "outputs": [
        {
          "internalType": "bool",
          "name": "",
          "type": "bool"
        }
      ],
      "stateMutability": "view",
      "type": "function"
    },
    {
      "inputs": [],
      "name": "symbol",
      "outputs": [
        {
          "internalType": "string",
          "name": "",
          "type": "string"
        }
      ],
      "stateMutability": "view",
      "type": "function"
    },
    {
      "inputs": [
        {
          "internalType": "uint256",
          "name": "tokenId",
          "type": "uint256"
        }
      ],
      "name": "tokenURI",
      "outputs": [
        {
          "internalType": "string",
          "name": "",
          "type": "string"
        }
      ],
      "stateMutability": "view",
      "type": "function"
    },
    {
      "inputs": [
        {
          "internalType": "address",
          "name": "from",
          "type": "address"
        },
        {
          "internalType": "address",
          "name": "to",
          "type": "address"
        },
        {
          "internalType": "uint256",
          "name": "tokenId",
          "type": "uint256"
        }
      ],
      "name": "transferFrom",
      "outputs": [],
      "stateMutability": "nonpayable",
      "type": "function"
    }
  ],
  "bytecode": "0x60806040523480156200001157600080fd5b506040518060400160405280600c81526020016b53746174757355706461746560a01b8152506040518060400160405280600481526020016314d5105560e21b815250816000908162000065919062000122565b50600162000074828262000122565b505050620001ee565b634e487b7160e01b600052604160045260246000fd5b600181811c90821680620000a857607f821691505b602082108103620000c957634e487b7160e01b600052602260045260246000fd5b50919050565b601f8211156200011d57600081815260208120601f850160051c81016020861015620000f85750805b601f850160051c820191505b81811015620001195782815560010162000104565b5050505b505050565b81516001600160401b038111156200013e576200013e6200007d565b62000156816200014f845462000093565b84620000cf565b602080601f8311600181146200018e5760008415620001755750858301515b600019600386901b1c1916600185901b17855562000119565b600085815260208120601f198616915b82811015620001bf578886015182559484019460019091019084016200019e565b5085821015620001de5787850151600019600388901b60f8161c191681555b5050505050600190811b01905550565b61150980620001fe6000396000f3fe608060405234801561001057600080fd5b50600436106101005760003560e01c806370a0823111610097578063af11c1f011610066578063af11c1f01461021d578063b88d4fde14610230578063c87b56dd14610243578063e985e9c51461025657600080fd5b806370a08231146101ce5780637d2211d6146101ef57806395d89b4114610202578063a22cb4651461020a57600080fd5b806323b872dd116100d357806323b872dd1461018257806330ccebb51461019557806342842e0e146101a85780636352211e146101bb57600080fd5b806301ffc9a71461010557806306fdde031461012d578063081812fc14610142578063095ea7b31461016d575b600080fd5b610118610113366004610f0c565b610292565b60405190151581526020015b60405180910390f35b6101356102e4565b6040516101249190610f79565b610155610150366004610f8c565b610376565b6040516001600160a01b039091168152602001610124565b61018061017b366004610fc1565b61039d565b005b610180610190366004610feb565b6104b7565b6101356101a3366004611027565b6104e8565b6101806101b6366004610feb565b6105ca565b6101556101c9366004610f8c565b6105e5565b6101e16101dc366004611027565b610645565b604051908152602001610124565b6101806101fd3660046110ce565b6106cb565b610135610772565b610180610218366004611117565b610781565b61013561022b366004611027565b610790565b61018061023e366004611153565b61082a565b610135610251366004610f8c565b610862565b6101186102643660046111cf565b6001600160a01b03918216600090815260056020908152604080832093909416825291909152205460ff1690565b60006001600160e01b031982166380ac58cd60e01b14806102c357506001600160e01b03198216635b5e139f60e01b145b806102de57506301ffc9a760e01b6001600160e01b03198316145b92915050565b6060600080546102f390611202565b80601f016020809104026020016040519081016040528092919081815260200182805461031f90611202565b801561036c5780601f106103415761010080835404028352916020019161036c565b820191906000526020600020905b81548152906001019060200180831161034f57829003601f168201915b5050505050905090565b6000610381826108d6565b506000908152600460205260409020546001600160a01b031690565b60006103a8826105e5565b9050806001600160a01b0316836001600160a01b03160361041a5760405162461bcd60e51b815260206004820152602160248201527f4552433732313a20617070726f76616c20746f2063757272656e74206f776e656044820152603960f91b60648201526084015b60405180910390fd5b336001600160a01b038216148061043657506104368133610264565b6104a85760405162461bcd60e51b815260206004820152603d60248201527f4552433732313a20617070726f76652063616c6c6572206973206e6f7420746f60448201527f6b656e206f776e6572206f7220617070726f76656420666f7220616c6c0000006064820152608401610411565b6104b28383610938565b505050565b6104c133826109a6565b6104dd5760405162461bcd60e51b815260040161041190611236565b6104b2838383610a25565b6001600160a01b03811660009081526007602052604081208054606092919061051090611202565b80601f016020809104026020016040519081016040528092919081815260200182805461053c90611202565b80156105895780601f1061055e57610100808354040283529160200191610589565b820191906000526020600020905b81548152906001019060200180831161056c57829003601f168201915b5050505050905080516000036102de57505060408051808201909152600d81526c139bc814dd185d1d5cc81e595d609a1b6020820152919050565b50919050565b6104b28383836040518060200160405280600081525061082a565b6000818152600260205260408120546001600160a01b0316806102de5760405162461bcd60e51b8152602060048201526018602482015277115490cdcc8c4e881a5b9d985b1a59081d1bdad95b88125160421b6044820152606401610411565b60006001600160a01b0382166106af5760405162461bcd60e51b815260206004820152602960248201527f4552433732313a2061646472657373207a65726f206973206e6f7420612076616044820152683634b21037bbb732b960b91b6064820152608401610411565b506001600160a01b031660009081526003602052604090205490565b608c815111156107125760405162461bcd60e51b815260206004820152601260248201527153746174757320697320746f6f206c6f6e6760701b6044820152606401610411565b33600090815260076020526040902061072b82826112d1565b50336001600160a01b03167fe34cbd33ad07d4c250de679ecb334eeaf389274e3aa46a896b9261db79e2c15c8242604051610767929190611391565b60405180910390a250565b6060600180546102f390611202565b61078c338383610b89565b5050565b600760205260009081526040902080546107a990611202565b80601f01602080910402602001604051908101604052809291908181526020018280546107d590611202565b80156108225780601f106107f757610100808354040283529160200191610822565b820191906000526020600020905b81548152906001019060200180831161080557829003601f168201915b505050505081565b61083433836109a6565b6108505760405162461bcd60e51b815260040161041190611236565b61085c84848484610c57565b50505050565b606061086d826108d6565b600061088460408051602081019091526000815290565b905060008151116108a457604051806020016040528060008152506108cf565b806108ae84610c8a565b6040516020016108bf9291906113b3565b6040516020818303038152906040525b9392505050565b6000818152600260205260409020546001600160a01b03166109355760405162461bcd60e51b8152602060048201526018602482015277115490cdcc8c4e881a5b9d985b1a59081d1bdad95b88125160421b6044820152606401610411565b50565b600081815260046020526040902080546001600160a01b0319166001600160a01b038416908117909155819061096d826105e5565b6001600160a01b03167f8c5be1e5ebec7d5bd14f71427d1e84f3dd0314c0f7b2291e5b200ac8c7c3b92560405160405180910390a45050565b6000806109b2836105e5565b9050806001600160a01b0316846001600160a01b031614806109f957506001600160a01b0380821660009081526005602090815260408083209388168352929052205460ff165b80610a1d5750836001600160a01b0316610a1284610376565b6001600160a01b0316145b949350505050565b826001600160a01b0316610a38826105e5565b6001600160a01b031614610a5e5760405162461bcd60e51b8152600401610411906113e2565b6001600160a01b038216610ac05760405162461bcd60e51b8152602060048201526024808201527f4552433732313a207472616e7366657220746f20746865207a65726f206164646044820152637265737360e01b6064820152608401610411565b826001600160a01b0316610ad3826105e5565b6001600160a01b031614610af95760405162461bcd60e51b8152600401610411906113e2565b600081815260046020908152604080832080546001600160a01b03199081169091556001600160a01b0387811680865260038552838620805460001901905590871680865283862080546001019055868652600290945282852080549092168417909155905184937fddf252ad1be2c89b69c2b068fc378daa952ba7f163c4a11628f55a4df523b3ef91a4505050565b816001600160a01b0316836001600160a01b031603610bea5760405162461bcd60e51b815260206004820152601960248201527f4552433732313a20617070726f766520746f2063616c6c6572000000000000006044820152606401610411565b6001600160a01b03838116600081815260056020908152604080832094871680845294825291829020805460ff191686151590811790915591519182527f17307eab39ab6107e8899845ad3d59bd9653f200f220920489ca2b5937696c31910160405180910390a3505050565b610c62848484610a25565b610c6e84848484610d1d565b61085c5760405162461bcd60e51b815260040161041190611427565b60606000610c9783610e1e565b600101905060008167ffffffffffffffff811115610cb757610cb7611042565b6040519080825280601f01601f191660200182016040528015610ce1576020820181803683370190505b5090508181016020015b600019016f181899199a1a9b1b9c1cb0b131b232b360811b600a86061a8153600a8504945084610ceb57509392505050565b60006001600160a01b0384163b15610e1357604051630a85bd0160e11b81526001600160a01b0385169063150b7a0290610d61903390899088908890600401611479565b6020604051808303816000875af1925050508015610d9c575060408051601f3d908101601f19168201909252610d99918101906114b6565b60015b610df9573d808015610dca576040519150601f19603f3d011682016040523d82523d6000602084013e610dcf565b606091505b508051600003610df15760405162461bcd60e51b815260040161041190611427565b805181602001fd5b6001600160e01b031916630a85bd0160e11b149050610a1d565b506001949350505050565b60008072184f03e93ff9f4daa797ed6e38ed64bf6a1f0160401b8310610e5d5772184f03e93ff9f4daa797ed6e38ed64bf6a1f0160401b830492506040015b6d04ee2d6d415b85acef81000000008310610e89576d04ee2d6d415b85acef8100000000830492506020015b662386f26fc100008310610ea757662386f26fc10000830492506010015b6305f5e1008310610ebf576305f5e100830492506008015b6127108310610ed357612710830492506004015b60648310610ee5576064830492506002015b600a83106102de5760010192915050565b6001600160e01b03198116811461093557600080fd5b600060208284031215610f1e57600080fd5b81356108cf81610ef6565b60005b83811015610f44578181015183820152602001610f2c565b50506000910152565b60008151808452610f65816020860160208601610f29565b601f01601f19169290920160200192915050565b6020815260006108cf6020830184610f4d565b600060208284031215610f9e57600080fd5b5035919050565b80356001600160a01b0381168114610fbc57600080fd5b919050565b60008060408385031215610fd457600080fd5b610fdd83610fa5565b946020939093013593505050565b60008060006060848603121561100057600080fd5b61100984610fa5565b925061101760208501610fa5565b9150604084013590509250925092565b60006020828403121561103957600080fd5b6108cf82610fa5565b634e487b7160e01b600052604160045260246000fd5b600067ffffffffffffffff8084111561107357611073611042565b604051601f8501601f19908116603f0116810190828211818310171561109b5761109b611042565b816040528093508581528686860111156110b457600080fd5b858560208301376000602087830101525050509392505050565b6000602082840312156110e057600080fd5b813567ffffffffffffffff8111156110f757600080fd5b8201601f8101841361110857600080fd5b610a1d84823560208401611058565b6000806040838503121561112a57600080fd5b61113383610fa5565b91506020830135801515811461114857600080fd5b809150509250929050565b6000806000806080858703121561116957600080fd5b61117285610fa5565b935061118060208601610fa5565b925060408501359150606085013567ffffffffffffffff8111156111a357600080fd5b8501601f810187136111b457600080fd5b6111c387823560208401611058565b91505092959194509250565b600080604083850312156111e257600080fd5b6111eb83610fa5565b91506111f960208401610fa5565b90509250929050565b600181811c9082168061121657607f821691505b6020821081036105c457634e487b7160e01b600052602260045260246000fd5b6020808252602d908201527f4552433732313a2063616c6c6572206973206e6f7420746f6b656e206f776e6560408201526c1c881bdc88185c1c1c9bdd9959609a1b606082015260800190565b601f8211156104b257600081815260208120601f850160051c810160208610156112aa5750805b601f850160051c820191505b818110156112c9578281556001016112b6565b505050505050565b815167ffffffffffffffff8111156112eb576112eb611042565b6112ff816112f98454611202565b84611283565b602080601f831160018114611334576000841561131c5750858301515b600019600386901b1c1916600185901b1785556112c9565b600085815260208120601f198616915b8281101561136357888601518255948401946001909101908401611344565b50858210156113815787850151600019600388901b60f8161c191681555b5050505050600190811b01905550565b6040815260006113a46040830185610f4d565b90508260208301529392505050565b600083516113c5818460208801610f29565b8351908301906113d9818360208801610f29565b01949350505050565b60208082526025908201527f4552433732313a207472616e736665722066726f6d20696e636f72726563742060408201526437bbb732b960d91b606082015260800190565b60208082526032908201527f4552433732313a207472616e7366657220746f206e6f6e20455243373231526560408201527131b2b4bb32b91034b6b83632b6b2b73a32b960711b606082015260800190565b6001600160a01b03858116825284166020820152604081018390526080606082018190526000906114ac90830184610f4d565b9695505050505050565b6000602082840312156114c857600080fd5b81516108cf81610ef656fea2646970667358221220dc1e66be7cf5c995c75bbda945c76b6d7cc0016390850e9b5b01283061476be464736f6c63430008140033",
  "linkReferences": {},
  "deployedLinkReferences": {}
}